:100D27005072657373204120666F72204163636F51
:100D3700756E7420646973706C617920616E6420CC
:100D47005720666F72207769746864726177696E7D
:100D57006720636173680D0A0048656C6C6F2C200F
:100D6700506C6561736520656E74657220416363BD
:100D77006F756E74204E756D6265720D0A00416362
:100D8700636F756E7420486F6C6465723A2053699F
:100D970074610D0A004163636F756E742042616C64
:100DA700616E63653A20000D0A004163636F756EDB
:100DB7007420486F6C6465723A20476974610D0A44
:100DC700004E6F2073756368206163636F756E747F
:100DD7002C20706C6561736520656E746572207672
:100DE700616C69642064657461696C730D0A0050F5
:100DF7006C6561736520656E7465722070617373CD
:100E0700776F72640D0A00456E74657220416D6FCD
:100E1700756E742C20696E2068756E6472656473D4
:100E27000D0A0052656D61696E696E672042616CDB
:100E3700616E63653A2000353030204E6F746573FC
:100E47003A20002C20313030204E6F7465733A20E1
:100E570000496E73756666696369656E74204675C9
:100E67006E64730D0A00496E636F72726563742056
:100E770050617373776F72640D0A004545333337DA
:050E870055504C4142F2
:10108C00C101C100060E00000000000006080000AF
:10109C000000000003170000000314000000051AF4
:0510AC0000000000003F
:1010B200758920758DF3759850D28ED2ACD2AF223D
:080E8C007B007A00790EAF260D
:100E94008E3D8F3E8B3F8A4089417C277D10120C0A
:100EA4009CEF2430120C56AE3DAF3E7C277D1012D1
:100EB4000C9C7E037FE8CFCDCFCECCCE120C9CEF22
:100EC4002430AB3FAA40A941900001120C68AE3D0A
:100ED400AF3E7C037DE8120C9C7E007F64CFCDCFB7
:100EE400CECCCE120C9CEF2430AB3FAA40A941904B
:100EF4000002120C68AE3DAF3E7C007D64120C9C77
:100F04007E007F0ACFCDCFCECCCE120C9CEF243006
:100F1400AB3FAA40A941900003120C68AE3DAF3E1E
:100F24007C007D0A120C9CED2430AB3FAA40A94101
:060F3400900004020C68AD
:100FC600AE29AF2A7C017DF4120CF18E2B8F2C7C7E
:100FD600017DF4120C8AC3E52A9FFFE5299EFE1CBB
:100FE6007D64120CF18E2D8F2E7B007A007917AF5F
:030FF6002CAE2BF3
:100FF9008E3D8F3E8B3F8A4089417C007D0A120CD1
:101009009C7E007F0ACFCDCFCECCCE120C9CEF2494
:1010190030120C56AE3DAF3E7C007D0A120C9CEDA1
:0E1029002430AB3FAA40A941900001020C68A0
:0810D2008F993001FDC20122DB
:061037007BFF7A0D799C9D
:10103D008B3D8A3E893FAB3DAA3EA93F120C3D60D8
:10104D0013053FE53F7002053E14F9120C3DFF12EA
:05105D0010D280E22228
:101062001210828F2485241E1210828F2485241D43
:101072001210828F2485241C1210828F2485241B37
:09108200E4FF3000FDC200AF994B
:01108B002242
:030023000210C206
:1010C200309905C299D20132309804C298D20032C6
:10080000E4F521F522F523F52475252775261075C5
:100810002727752810F529F52AF52BF52CF52DF548
:100820002EF52FF530F531F53278337C00FD7BFF66
:100830007A0E7982FE7F05120C1778387C007D00D5
:100840007BFF7A0E79877E007F05120C171210B29B
:100850007BFF7A0D7927020B351210828F21E5215B
:10086000B47703752157E521B46103752141E52172
:1008700024A96072241670E17BFF7A0D7960121052
:100880003D1210828F22E52224CE602604704E7B1A
:10089000FF7A0D798512103DAE25120E8C1210379D
:1008A0007B007A00790E12103D7BFF7A0D79AE0243
:1008B0000B357BFF7A0D79B112103D7B007A007900
:1008C00008AF28AE27120E941210377B007A0079F9
:1008D0000812103D7BFF7A0D79AE020B357BFF7A53
:1008E0000D79C8020B357BFF7A0D796012103D122D
:1008F00010828F22E52224CE7003020A29046003AD
:10090000020B2F7BFF7A0D79F612103D1210628FC9
:100910002485241AE4900033700A741A65827004E6
:10092000740065836003020A207BFF7A0D798512CB
:10093000103D7B007A00790EAF26AE25120E941280
:1009400010377B007A00790E12103D7BFF7A0D790B
:10095000AE12103D7BFF7A0E790E12103D121082FE
:100960008F23EF24D0F530E434FFF52FFEAF307C39
:10097000037DE8120C8A8E298F2A1210828F23EFB2
:1009800024D0F530E434FFF52FFEAF307C007D64D9
:10099000120C8AEF252AF52AEE3529F529C3E52A16
:1009A0009526E5256480F8E5296480985069C3E5BB
:1009B00026952AF526E5259529F525FE120E8C7B30
:1009C000FF7A0E792A12103D7B007A00790E121000
:1009D0003D7BFF7A0D79AE12103D120FC67B007A77
:1009E000007914AF2EAE2D120FF97BFF7A0E793EEF
:1009F00012103D7B007A00791712103D7BFF7A0EB2
:100A0000794A12103D7B007A00791412103D7BFF69
:100A10007A0D79AE020B357BFF7A0E7958020B35D1
:100A20007BFF7A0E796D020B357BFF7A0D79F6121A
:100A3000103D1210628F2485241AE4900038700A49
:100A4000741A65827004740065836003020B3B7B3B
:100A5000FF7A0D79B112103D7B007A007908AF283A
:100A6000AE27120E941210377B007A00790812100C
:100A70003D7BFF7A0D79AE12103D7BFF7A0E790E29
:100A800012103D1210828F23EF24D0F530E434FF92
:100A9000F52FFEAF307C007D64120C8AEF252AF51D
:100AA0002AEE3529F529C3E52A9528E5276480F83B
:100AB000E5296480985070C3E528952AF528E52734
:100AC0009529F5277B007A007908AF28FE120E944D
:100AD0007BFF7A0E792A12103D7B007A007908128A
:100AE000103D7BFF7A0D79AE12103D120FC67B00D0
:100AF0007A007914AF2EAE2D120FF97BFF7A0E79A2
:100B00003E12103D7B007A00791712103D7BFF7A70
:100B10000E794A12103D7B007A00791412103D7B49
:100B2000FF7A0D79AE800E7BFF7A0E795880067BB6
:100B3000FF7A0D79C812103D0208597BFF7A0E79B1
:070B40005812103D02085994
:03000000020F3AB2
:0C0F3A00787FE4F6D8FD758141020F813C
:100B4700E709F608DFFA8046E709F208DFFA803E90
:100B570088828C83E709F0A3DFFA8032E309F6087D
:100B6700DFFA8078E309F208DFFA807088828C83E5
:100B7700E309F0A3DFFA806489828A83E0A3F60899
:100B8700DFFA805889828A83E0A3F208DFFA804C73
:100B970080D280FA80C680D4806980F2803380104A
:100BA70080A680EA809A80A880DA80E280CA8033B3
:100BB70089828A83ECFAE493A3C8C582C8CCC5832B
:100BC700CCF0A3C8C582C8CCC583CCDFE9DEE780FB
:100BD7000D89828A83E493A3F608DFF9ECFAA9F07A
:100BE700EDFB2289828A83ECFAE0A3C8C582C8CCD0
:100BF700C583CCF0A3C8C582C8CCC583CCDFEADEE9
:100C0700E880DB89828A83E493A3F208DFF980CC4A
:100C170088F0EF60010E4E60C388F0ED2402B40443
:100C27000050B9F582EB2402B4040050AF232345EA
:060C37008223900B97736D
:100C3D00BB010689828A83E0225002E722BBFE02B5
:090C4D00E32289828A83E49322E8
:100C5600BB010689828A83F0225002F722BBFE017D
:020C6600F32277
:100C6800F8BB010DE58229F582E5833AF583E8F0C2
:100C7800225006E92582C8F622BBFE05E92582C86E
:020C8800F22256
:100C8A00EF8DF0A4A8F0CF8CF0A428CE8DF0A42E7E
:020C9A00FE2238
:100C9C00BC000BBE0029EF8DF084FFADF022E4CC3C
:100CAC00F875F008EF2FFFEE33FEEC33FCEE9DEC05
:100CBC00984005FCEE9DFE0FD5F0E9E4CEFD22ED4B
:100CCC00F8F5F0EE8420D21CFEADF075F008EF2F95
:100CDC00FFED33FD4007985006D5F0F222C398FD86
:050CEC000FD5F0EA2223
:100CF100C2D5EC30E709B2D5E4C39DFDE49CFCEE1E
:100D010030E715B2D5E4C39FFFE49EFE120C9CC3ED
:100D1100E49DFDE49CFC8003120C9C30D507C3E4E8
:060D21009FFFE49EFE228C
:100F4600020800E493A3F8E493A34003F68001F2B9
:100F560008DFF48029E493A3F85407240CC8C333AC
:100F6600C4540F4420C8834004F456800146F6DF7B
:100F7600E4800B010204081020408090108CE47E6F
:100F8600019360BCA3FF543F30E509541FFEE49370
:100F9600A360010ECF54C025E060A840B8E493A337
:100FA600FAE493A3F8E493A3C8C582C8CAC583CA62
:100FB600F0A3C8C582C8CAC583CADFE9DEE780BE1A
:0110B100003E
:00000001FF
