:03000000020A15DC
:0C0A1500787FE4F6D8FD75810C0208A47F
:10092400E4F5A0C282C280C2817F38FE1209F17F41
:10093400047E0012097C7F067E001209F17F047E8A
:100944000012097C7F0C7E001209F17F047E0012E4
:10095400097C7F017E001209F17F047E0012097C6C
:070964007F807E000209F113
:10096B001209C17FE87E0312097C1209D97FE87E48
:01097B000378
:10097C00E4FDFCC3ED9FEC9E5015E4FBFA0BBB00B1
:0F098C00010ABA01F8BB7EF50DBD00010C80E435
:01099B002239
:1009F100C280C281D2828FA07F0A7E0012097CC28E
:020A010082224F
:100A0300D280C281D2828FA07F0A7E0012097CC26B
:020A130082223D
:10099C008B088A09890AAB08AA09A90A12080060FF
:1009AC0013050AE50A7002050914F9120800FF1272
:0509BC000A0380E222A5
:1009C100900000B2877F017E0012097CA3E582B40A
:0709D100DCF1E583B405EC45
:0109D80022FC
:1009D900900000B2877F017E0012097CA3E582B4F2
:0709E900EEF1E583B402EC1E
:0109F00022E4
:060A36001209750209C15E
:090A2D0012096B1209750209D9C6
:0C0A210012096B1209C11209780209D9F0
:060A3C0012096B0209D94A
:030A42000209D9CD
:1008A4001209247F887E001209F175900FAF9075AC
:1008B4000B008F0CAE0B7C007D02120819ED4C600E
:1008C4000A7F41120A03120A368053AE0BAF0C7C26
:1008D400007D04120819ED4C600A7F42120A0312CB
:1008E4000A2D803AAE0BAF0C7C007D08120819ED7E
:1008F4004C600A7F43120A03120A218021AE0BAF17
:100904000C7C007D10120819ED4C600A7F44120A19
:1009140003120A3C80087F45120A03120A4280FE31
:10080000BB010689828A83E0225002E722BBFE02F6
:09081000E32289828A83E4932229
:10081900C2D5EC30E709B2D5E4C39DFDE49CFCEEFA
:1008290030E715B2D5E4C39FFFE49EFE12084FC31B
:10083900E49DFDE49CFC800312084F30D507C3E416
:060849009FFFE49EFE2269
:10084F00BC000BBE0029EF8DF084FFADF022E4CC8D
:10085F00F875F008EF2FFFEE33FEEC33FCEE9DEC56
:10086F00984005FCEE9DFE0FD5F0E9E4CEFD22ED9C
:10087F00F8F5F0EE8420D21CFEADF075F008EF2FE6
:10088F00FFED33FD4007985006D5F0F222C398FDD7
:05089F000FD5F0EA2274
:00000001FF
