:03000000020030CB
:09000B00B28785308C85318A3200
:1000300075A00075900091989198912D9198919844
:1000400091987482916A9198900900918A9198751B
:10005000891175A8827530EE75313F85308C8531F8
:100060008AD28C7A1E9100DAFCC28C7530F0753120
:100070002F85308C85318AD28C7A1E9100DAFCC2B1
:100080008C7530F27531B785308C85318AD28C7A97
:100090001E9100DAFCC28C7530F075312F85308CE2
:1000A00085318AD28C7A1E9100DAFCC28C7530F5CB
:1000B00075317185308C85318AD28C7A289100DA3D
:1000C000FCC28CC2877A149100DAFCC28C7530F5C0
:1000D00075317185308C85318AD28C7A289100DA1D
:1000E000FCC28C7530F475312A85308C85318AD20A
:0C00F0008C7A289100DAFCC28C02004FD0
:10040000758BB0758D3CD28E308FFDC28EC28F221F
:10041000E9540FFA9120FBE954F0C4FA9120FC2230
:10042000C3940A4003244122EA243080FA75A0389C
:10043000C280C281D2829198C282919875A00CC26A
:1004400080C281D2829198C282919875A001C280A7
:10045000C281D2829198C282919875A006C280C250
:1004600081D2829198C282919822F5A0C280C281E5
:10047000D2829198C282919822F5A0D280C281D274
:10048000829198C2829198919822C0E0E49360058D
:100490009179A380F7D0E022C000C001780179FFF4
:1004A000D9FED8FAD001D00022C00078C891B4D8C3
:1004B000FCD00022C000781491BFD8FCD00022C02C
:0804C0000078F4D8FED0002200
:0D090000524F4C4C494E472054494D450084
:00000001FF
