:03000000020030CB
:1000300075A000759000916B916B9100916B916B25
:10004000916B7570F17571D3E570540FF573E570B0
:1000500054F0C4F572E571540FF575E57154F0C4B0
:10006000F574E573C4F5907485913D916B9009002A
:10007000915D916B74C3913D916B900920915DE509
:100080007391D0917CE572C4F5907485913D916B2C
:10009000900908915D916B74C3913D916B9009201B
:1000A000915DE57291D0917CE575C4F59074859170
:1000B0003D916B900910915D916B74C3913D916B73
:1000C000900920915DE57591D0917CE574C4F5901F
:1000D0007485913D916B900918915D916B74C391FA
:1000E0003D916B900920915DE57491D0917C020067
:0100F00062AD
:1004000075A038C280C281D282916BC282916B7515
:10041000A00CC280C281D282916BC282916B75A006
:1004200001C280C281D282916BC282916B75A0069B
:10043000C280C281D282916BC282916B22F5A0C22E
:1004400080C281D282916BC282916B22F5A0D28050
:10045000C281D282916BC282916B916B22C0E0E427
:10046000936005914CA380F7D0E022C000C00178D2
:100470000179FFD9FED8FAD001D0002274FF945040
:100480002401F532402474FF94C3F5317B017A28AE
:100490009197DAFCDBF82275890185328A85318CE7
:1004A000D28C308DFDC28CC28D22E5319401F531A4
:1004B000020486E9540FFA91C3FBE954F0C4FA919F
:1004C000C3FC22C3940A4003244122EA243080FA68
:1004D000F5F05401F991B374CD913D916BEB914CD2
:1004E000916BE5F0540203F991B374CC913D916B9B
:1004F000EB914C916BE5F054040303F991B374CB89
:10050000913D916BEB914C916BE5F0540803030323
:01051000F9F1
:0E05110091B374CA913D916BEB914C916B22AA
:100900004C6576656C2031004C6576656C20320054
:100910004C6576656C2033004C6576656C20340040
:0809200056616C75653A200078
:00000001FF
