:03000000020030CB
:1000300075A000759000516B516B5100516B516B65
:10004000516B7482513D516B900300515D516B7443
:10005000C3513D516B90030D515D517C7481513DF5
:10006000516B900318515D516B74C3513D516B90AE
:100070000327515D759000D297517C517C7590FF9C
:10008000E590540FC4F530759000D296517C517CA8
:100090007590FFE590540F2530F530759000D2959E
:1000A000517C517C7590FFE590540FC4F5317590EB
:1000B00000D294517C517C7590FFE590540F25310E
:1000C000F531C2947930519B8B618C607931519BB1
:1000D0008B638C627480513D516B900332515D5142
:1000E0006B74C0513D516B900343515D74C5513DDC
:1000F000516BE560514C516B74C6513D516BE561DC
:10010000514C516B74C7513D516B900349515D7413
:10011000CE513D516BE562514C516B74CF513D5105
:100120006BE563514C516B517C517CE5308531F06E
:10013000A485F032F5337932519B8B658C64793329
:10014000519B8B678C667480513D516B900351516C
:100150005D516B748A513D516BE564514C516B7428
:0B0160008B513D516BE565514C516B1C
:10016B00748C513D516BE566514C516B748D513D07
:10017B00516BE567514C516B748E513D516B900334
:07018B005C515D516B80FE29
:1002000075A038C280C281D282516BC282516B7597
:10021000A00CC280C281D282516BC282516B75A088
:1002200001C280C281D282516BC282516B75A0061D
:10023000C280C281D282516BC282516B22F5A0C2B0
:1002400080C281D282516BC282516B22F5A0D280D2
:10025000C281D282516BC282516B516B22C0E0E4E9
:10026000936005514CA380F7D0E022C000C0017814
:100270000179FFD9FED8FAD001D00022C00078C899
:100280005187D8FCD00022C00078145192D8FCD0FD
:100290000022C00078F4D8FED00022E7540FFA51B3
:1002A000ABFBE754F0C4FA51ABFC22C3940A400301
:0802B000244122EA243080FA07
:10030000456E74657220496E70757473004545338F
:1003100033372D323032320052656164696E6720A6
:10032000496E707574730045453333372D32303262
:100330003200436F6D707574696E67205265737516
:100340006C74004E756D313A002C204E756D323A4A
:0F0350000020526573756C74203D200020200042
:00000001FF
