:100D01005072657373204120666F72204163636F77
:100D1100756E7420646973706C617920616E6420F2
:100D21005720666F72207769746864726177696EA3
:100D31006720636173680D0A0048656C6C6F2C2035
:100D4100506C6561736520656E74657220416363E3
:100D51006F756E74204E756D6265720D0A00416388
:100D6100636F756E7420486F6C6465723A205369C5
:100D710074610D0A004163636F756E742042616C8A
:100D8100616E63653A20000D0A004163636F756E01
:100D91007420486F6C6465723A20476974610D0A6A
:100DA100004E6F2073756368206163636F756E74A5
:100DB1002C20706C6561736520656E746572207698
:100DC100616C69642064657461696C730D0A004526
:100DD1006E74657220416D6F756E742C20696E2082
:100DE10068756E64726564730D0A00496E76616C94
:100DF100696420416D6F756E740D0A0052656D61F5
:100E0100696E696E672042616C616E63653A2000AC
:100E1100353030204E6F7465733A20002C2031300C
:100E210030204E6F7465733A2000496E73756666A3
:0F0E3100696369656E742046756E64730D0A00FF
:10110000C101C100060E000000000000060800003A
:101110000000000003170000000314000000051A7F
:051120000000000000CA
:10113F00758920758DF3759850D28ED2ACD2AF22AF
:080F2A007B007A00790EAF256F
:100F32008E328F338B348A3589367C277D10120EA0
:100F42009FEF2430120E59AE32AF337C277D101240
:100F52000E9F7E037FE8CFCDCFCECCCE120E9FEF79
:100F62002430AB34AA35A936900001120E6BAE3292
:100F7200AF337C037DE8120E9F7E007F64CFCDCF1E
:100F8200CECCCE120E9FEF2430AB34AA35A93690C8
:100F92000002120E6BAE32AF337C007D64120E9FE4
:100FA2007E007F0ACFCDCFCECCCE120E9FEF243063
:100FB200AB34AA35A936900003120E6BAE32AF33B2
:100FC2007C007D0A120E9FED2430AB34AA35A9367F
:060FD200900004020E6B0A
:10106400AE28AF297C017DF4120EF48E2A8F2B7CDE
:10107400017DF4120E8DC3E5299FFFE5289EFE1C19
:101084007D64120EF48E2C8F2D7B007A007917AFBD
:031094002BAE2A56
:101097008E328F338B348A3589367C007D0A120E67
:1010A7009F7E007F0ACFCDCFCECCCE120E9FEF24EE
:1010B70030120E59AE32AF337C007D0A120E9FED0F
:0E10C7002430AB34AA35A936900001020E6B1E
:08115F008F993001FDC201224D
:0610D5007BFF7A0D797625
:1010DB008B328A338934AB32AA33A934120E406077
:1010EB00130534E5347002053314F9120E40FF1268
:0510FB00115F80E222FC
:0F112600AE2EAF2F7C037DE8120E8D8E288F2901
:09113500E4FF3000FDC200AF9997
:01113E00228E
:0300230002114F78
:10114F00309905C299D20132309804C298D2003238
:10080000E4F521F522F52375242775251075262793
:10081000752710F528F529F52AF52BF52CF52DF57A
:100820002EF52FF530F53112113F7BFF7A0D79014E
:10083000020CEF1211358F21E521B4770375215792
:10084000E521B46103752141E52124A960722416D4
:1008500070E17BFF7A0D793A1210DB1211358F228D
:10086000E52224CE602604704E7BFF7A0D795F125C
:1008700010DBAE24120F2A1210D57B007A00790EFD
:100880001210DB7BFF7A0D7988020CEF7BFF7A0D6B
:10089000798B1210DB7B007A007908AF27AE261225
:1008A0000F321210D57B007A0079081210DB7BFF23
:1008B0007A0D7988020CEF7BFF7A0D79A2020CEF9A
:1008C0007BFF7A0D793A1210DB1211358F22E52267
:1008D00024CE7003020AEF046003020CF57BFF7A5A
:1008E0000D795F1210DB7B007A00790EAF25AE2404
:1008F000120F321210D57B007A00790E1210DB7BBA
:10090000FF7A0D79881210DB7BFF7A0D79D01210F7
:10091000DB1211358F23E52324D0B40A00507B90DD
:10092000092D75F003A4C58325F0C5837302094B17
:1009300002095202095A02096202096A0209720294
:10094000097A02098202098A020992E4F52EF52F3A
:100950008057752E00752F01804F752E00752F0260
:100960008047752E00752F03803F752E00752F046C
:100970008037752E00752F05802F752E00752F0678
:100980008027752E00752F07801F752E00752F0884
:100990008017752E00752F09800F7BFF7A0D79EC7B
:1009A0001210DB753000753101E53164014530709E
:1009B000030208331211268F23E52324D0B40A0042
:1009C000507B9009D075F003A4C58325F0C58373CF
:1009D0000209EE0209F50209FD020A05020A0D02EA
:1009E0000A15020A1D020A25020A2D020A35E4F53B
:1009F0002EF52F8057752E00752F01804F752E0014
:100A0000752F028047752E00752F03803F752E00CD
:100A1000752F048037752E00752F05802F752E00D9
:100A2000752F068027752E00752F07801F752E00E5
:100A3000752F088017752E00752F09800F7BFF7AA0
:100A40000D79EC1210DB753000753101E531640170
:100A500045307003020833AE2EAF2F7C007D641248
:100A60000E8DEF2529F529EE3528F528C3E52995C2
:100A700025E5246480F8E5286480985069C3E5255D
:100A80009529F525E5249528F524FE120F2A7BFFEC
:100A90007A0D79FD1210DB7B007A00790E1210DBE3
:100AA0007BFF7A0D79881210DB1210647B007A00CC
:100AB0007914AF2DAE2C1210977BFF7A0E7911129C
:100AC00010DB7B007A0079171210DB7BFF7A0E793E
:100AD0001D1210DB7B007A0079141210DB7BFF7A89
:100AE0000D7988020CEF7BFF7A0E792B020CEF7BDD
:100AF000FF7A0D798B1210DB7B007A007908AF2723
:100B0000AE26120F321210D57B007A00790812102F
:100B1000DB7BFF7A0D79881210DB7BFF7A0D79D0B1
:100B20001210DB1211358F23E52324D0B40A0050B4
:100B30007B900B3F75F003A4C58325F0C58373023A
:100B40000B5D020B64020B6C020B74020B7C020B3C
:100B500084020B8C020B94020B9C020BA4E4F52E76
:100B6000F52F8057752E00752F01804F752E00755B
:100B70002F028047752E00752F03803F752E00755C
:100B80002F048037752E00752F05802F752E007568
:100B90002F068027752E00752F07801F752E007574
:100BA0002F088017752E00752F09800F7BFF7A0D97
:100BB00079EC1210DB7530007531011211268F238C
:100BC000E52324D0B40A00507B900BD775F003A422
:100BD000C58325F0C58373020BF5020BFC020C04E0
:100BE000020C0C020C14020C1C020C24020C2C0231
:100BF0000C34020C3CE4F52EF52F8057752E007551
:100C00002F01804F752E00752F028047752E0075BD
:100C10002F03803F752E00752F048037752E0075C9
:100C20002F05802F752E00752F068027752E0075D5
:100C30002F07801F752E00752F088017752E0075E1
:100C40002F09800F7BFF7A0D79EC1210DB753000D5
:100C5000753101AE2EAF2F7C007D64120E8DEF2515
:100C600029F529EE3528F528C3E5299527E52664D9
:100C700080F8E5286480985070C3E5279529F5270A
:100C8000E5269528F5267B007A007908AF27FE1225
:100C90000F327BFF7A0D79FD1210DB7B007A007931
:100CA000081210DB7BFF7A0D79881210DB121064BA
:100CB0007B007A007914AF2DAE2C1210977BFF7A4F
:100CC0000E79111210DB7B007A0079171210DB7B92
:100CD000FF7A0E791D1210DB7B007A007914121056
:100CE000DB7BFF7A0D798880067BFF7A0E792B12E9
:100CF00010DB0208337BFF7A0D79A21210DB0208A9
:010D000033BF
:03000000020FD814
:0C0FD800787FE4F6D8FD75813602101F0A
:100E4000BB010689828A83E0225002E722BBFE02B0
:090E5000E32289828A83E49322E3
:100E5900BB010689828A83F0225002F722BBFE0178
:020E6900F32272
:100E6B00F8BB010DE58229F582E5833AF583E8F0BD
:100E7B00225006E92582C8F622BBFE05E92582C869
:020E8B00F22251
:100E8D00EF8DF0A4A8F0CF8CF0A428CE8DF0A42E79
:020E9D00FE2233
:100E9F00BC000BBE0029EF8DF084FFADF022E4CC37
:100EAF00F875F008EF2FFFEE33FEEC33FCEE9DEC00
:100EBF00984005FCEE9DFE0FD5F0E9E4CEFD22ED46
:100ECF00F8F5F0EE8420D21CFEADF075F008EF2F90
:100EDF00FFED33FD4007985006D5F0F222C398FD81
:050EEF000FD5F0EA221E
:100EF400C2D5EC30E709B2D5E4C39DFDE49CFCEE19
:100F040030E715B2D5E4C39FFFE49EFE120E9FC3E3
:100F1400E49DFDE49CFC8003120E9F30D507C3E4DE
:060F24009FFFE49EFE2287
:100FE400020800E493A3F8E493A34003F68001F21B
:100FF40008DFF48029E493A3F85407240CC8C3330E
:10100400C4540F4420C8834004F456800146F6DFDC
:10101400E4800B0102040810204080901100E47E5B
:10102400019360BCA3FF543F30E509541FFEE493D1
:10103400A360010ECF54C025E060A840B8E493A398
:10104400FAE493A3F8E493A3C8C582C8CAC583CAC3
:10105400F0A3C8C582C8CAC583CADFE9DEE780BE7B
:0111250000C9
:00000001FF
