:03000000020030CB
:0300030091003237
:04000B000DC28D3263
:1000300075A00075900091E691E6917B91E691E6BE
:1000400091E675900075A883758901758A00758C95
:1000500000D2887D00748091B891E690090091D813
:1000600091E674C091B891E690091191D891F791F9
:10007000F7B294C28DD28CD290C3A290B392B24008
:10008000F88D30858C31858A3291069117911791C0
:1000900017911785F0619117E5F0C42561F561911D
:1000A00017E532C425F0F560A961915E8B638C621F
:1000B000A960915E8B618C60748091B891E6900923
:1000C0002291D891E674C091B891E6E56091C7910C
:1000D000E674C191B891E6E56191C791E674C29169
:1000E000B891E6E56291C791E674C391B891E6E5EF
:1000F0006391C791E674C491B891E690093391D8A1
:0F01000091E691F791F791F791F791F702004887
:10040000C28CC294C322C3E53013F530E53113F535
:1004100031E53213F53222E53075F00A84F530E526
:100420003154F025F0C475F00A84C4FEE5F0C4F53B
:10043000F0E531540F25F075F00A842EF531E532E0
:1004400054F025F0C475F00A84C4FFE5F0C4F5F05B
:10045000E532540F25F075F00A842EF53222E95466
:100460000FFA916EFBE954F0C4FA916EFC22C3942A
:100470000A4003244122EA243080FA75A038C28061
:10048000C281D28291E6C28291E675A00CC280C27E
:1004900081D28291E6C28291E675A001C280C281BA
:1004A000D28291E6C28291E675A006C280C281D254
:1004B0008291E6C28291E622F5A0C280C281D282F8
:1004C00091E6C28291E622F5A0D280C281D28291C9
:1004D000E6C28291E691E622C0E0E493600591C70E
:1004E000A380F7D0E022C000C001780179FFD9FED7
:1004F000D8FAD001D00022C00078C8B102D8FCD010
:080500000022C0007814B10DC7
:0E050800D8FCD00022C00078F4D8FED000222B
:10090000202020546F67676C6520535731202020CA
:100910000020206966204C454420676C6F77732067
:10092000200020205265616374696F6E2054696DE8
:10093000652000206D696C6C697365636F6E64007F
:00000001FF
